:1000000019C018951895189518951895189518955C
:100010001895189518951895189518951895189578
:100020001895189518951895189518951895189568
:10003000189518958FEF8DBFC8EDE0EA4E2E82E03F
:100040008EBFD2E0F2E05F2EA89584B7082E877F9E
:1000500084BF88E199278093600090936000EEEF61
:10006000F1E0A0E0B1E088278D933197E9F76624AD
:100070007091500070687093500070917A007F7793
:1000800070937A0087E08093B10080E08093B000A5
:1000900080E28093B6007091700071607093700080
:1000A000CED4209A389A2198299A22982A9A23986D
:1000B0002B9A24982C9A25982D9A3998419A3A98F7
:1000C000429A3B98439A81E080932701789400916B
:1000D0000001013009F065C070EE7093B200409AE3
:1000E00080E08AB97FEF7BB90000A9E2B1E089B175
:1000F0008C930091290147E00423AAE1B1E00C931D
:1001000095E0A9E2B1E012D50091290147E004236E
:10011000ABE1B1E00C9370E07BB98FEF8AB9A5E257
:10012000B1E00D911C91003050E0150781E008F41A
:1001300080E08F93A5E2B1E00D911C910F3F5FE746
:10014000150781E010F009F080E09F918923882352
:1001500009F40DC000912701023008F407C0A7E29E
:10016000B1E00C9142E0FAD40C93CFD211C00F3F12
:100170005FEF150709F00CC000912701043008F06B
:1001800007C0A7E2B1E00C9142E0049F0C92BDD2FF
:100190006DD412E775D410E873D412E071D468D42A
:1001A000B9C1023009F035C161D412E769D414E84D
:1001B00067D45CD413E764D482D4A5E2B1E01C9385
:1001C0007CD4A6E2B1E01C9353D44098A5E2B1E000
:1001D0000D911C910F3F5FEF150708F013C0A5E2CA
:1001E000B1E00D911C9122273327A7E2B1E04C9199
:1001F00055276627772777D4A1E2B1E00D931D93A9
:100200002D933D93A1E2B1E00D911D912D913C9173
:10021000ACE2B1E00D931D932D933C9340E050E090
:1002200060E070E0ACE2B1E00D911D912D913C9148
:10023000041715072607370781E008F480E08F933D
:100240004FEF5FE060E070E0ACE2B1E00D911D9136
:100250002D913C91041715072607370781E010F010
:1002600009F080E09F918923882309F404C080E08D
:100270008093190190C040E050E160E070E0ACE292
:10028000B1E00D911D912D913C91041715072607A2
:10029000370781E008F480E08F9346EF5FE960E084
:1002A00070E0ACE2B1E00D911D912D913C910417ED
:1002B00015072607370781E010F009F080E09F91CD
:1002C0008923882309F415C081E080931901ACE2E9
:1002D000B1E00D911D912D913C914AE050E060E01C
:1002E00070E057D3ACE2B1E04D935D936D937D9395
:1002F00052C047EF5FE960E070E0ACE2B1E00D9121
:100300001D912D913C91041715072607370781E0B1
:1003100008F480E08F934CE95FE366E070E0ACE2C4
:10032000B1E00D911D912D913C9104171507260701
:10033000370781E010F009F080E09F91892388233E
:1003400009F415C082E080931901ACE2B1E00D918F
:100350001D912D913C9144E650E060E070E019D38E
:10036000ACE2B1E04D935D936D937D9314C083E057
:1003700080931901ACE2B1E00D911D912D913C915A
:1003800048EE53E060E070E004D3ACE2B1E04D939E
:100390005D936D937D9385E08093360180911A0182
:1003A00080933701ACE2B1E08D919C91A4E3B1E080
:1003B0008D939C93A4E3B1E08C91A9E2B1E08C937E
:1003C000009129014FE00423A8E3B1E00C9394E0ED
:1003D000A9E2B1E0ABD38091290180933901A4E374
:1003E000B1E011968C91A9E2B1E08C9300912901C2
:1003F0004FE00423AAE3B1E00C93809119018093AC
:100400003B0182E38093130186E08093160197D02D
:1004100081C0033009F005C083EF80931C0187D1B0
:1004200079C0043009F006C091D185EF80931C019A
:100430007ED170C0053009F06DC000911B0140E114
:10044000049F0092B20082D1ADE1B1E00D911C9108
:10045000043D5EEF15070CF001C05CC0AFE1B1E0F8
:100460000D911C91013050E015070CF001C052C0F5
:1004700081E08093360180911B0180933701ADE1CB
:10048000B1E08D919C91A4E3B1E08D939C93ADE19B
:10049000B1E00D911C91003050E015070CF401C043
:1004A00010C0A7E3B1E08C9188608C93ADE1B1E01E
:1004B0000D911C914FEF5FEF0CD3A4E3B1E00D93CE
:1004C0001C93D7D180912B018093380180912A0110
:1004D000809339018091290180933A01AFE1B1E025
:1004E0008D919C91A4E3B1E08D939C93C2D18091B6
:1004F0002B0180933B0180912A0180933C018091E4
:10050000290180933D018CE38093130188E080935F
:10051000160115D0A0E0B1E08C918F5F8C93009113
:100520000001073108F403C080E08093000173B735
:10053000707F776073BF8895CACDF894FFCFA9E02C
:10054000B1E0EAE8FBE01AD38AE0809329016894DD
:1005500080912901A9E0B1E0FBD2F0D20C9016F015
:10056000092201C0082A0C92A9E2B1E08C918B5FAC
:100570008C934091130100912901041710F009F0A8
:1005800001C0E5CF80E08093170180E080931801DF
:1005900080E080931501A5E1B1E08C918F5F8C9391
:1005A000A5E1B1E0AD90BB24A5E3B1E0AA0DBB1D70
:1005B0008C918093140163D0409116010091150134
:1005C000041708F4E8CFA5E1B1E08C918F5F8C931C
:1005D000809117018093140152D0A8E1B1E08C9171
:1005E0008B5F8C93009118014FE00423A4E1B1E0EC
:1005F0000C93A5E1B1E08C918F5F8C9340D080E0AB
:100600008093290180912901A9E0B1E0A1D296D27D
:100610000C900822689409F4E8940EF011C0289A0E
:10062000EF93FF93E8E5F0E001D2FF91EF91289876
:10063000EF93FF93EFEBF0E0F9D1FF91EF9110C052
:10064000289AEF93FF93E2EDF0E0F0D1FF91EF9164
:100650002898EF93FF93E8E4F0E0E8D1FF91EF9161
:10066000A9E2B1E08C918F5F8C93409113010091CE
:100670002901041710F009F001C0C4CF08950091BA
:10068000150145E0049FA2E1B1E00C92A2E1B1E0C6
:100690008C918A5F8C9380E080932901809129015D
:1006A000A4E1B1E055D24AD20C900822689409F432
:1006B000E89480911201A9E0B1E04AD23FD20C90B7
:1006C00016F0092201C0082A0C92A2E1B1E08C9137
:1006D0008F5F8C93A9E2B1E08C918F5F8C93009136
:1006E0002901043008F4DACF009117014091140178
:1006F0000427A7E1B1E00C93009118014091140187
:10070000040FA8E1B1E00C93089580912701809334
:10071000290191E0A9E2B1E009D2A8D112E7B0D154
:1007200011E8AED110912901ABD1A2D108959ED18B
:1007300010E8A6D110911C01A3D1EF93FF93E1E043
:10074000F0E074D1FF91EF9193D108958FD111E82A
:1007500097D1B5D1A6E3B1E01C93B1D1A7E3B1E045
:100760001C93ABD1A8E3B1E01C9382D1E6E3F1E0A6
:1007700002E0882761E39191892718E0880F08F447
:1007800086271A95D9F70A95B1F73196808340915B
:10079000390100913801041709F06AC0A7E3B1E0FC
:1007A0008C918C7F8C939091360180913701A4E3DA
:1007B000B1E08D939C9300911C01033F09F02FC081
:1007C00004EA14E420E030E0A4E3B1E04D915C9150
:1007D0006627772788D1A0E3B1E00D931D932D9371
:1007E0003D93A0E3B1E012968D919C91ADE1B1E013
:1007F0008D939C93ADE1B1E00D911C910D5412418C
:10080000ADE1B1E00D931C93ADE1B1E00D911C9110
:100810004AE050E07AD0ADE1B1E04D935C930091B5
:100820001C01053F09F024C002EE14E020E030E096
:10083000A4E3B1E04D915C916627772754D1A0E302
:10084000B1E00D931D932D933D93A0E3B1E012967B
:100850008D919C91AFE1B1E08D939C93AFE1B1E0BC
:100860000D911C910C531040AFE1B1E00D931C931E
:10087000089580E080932801A4E3B1E00D911C91DC
:10088000043650E0150708F410C0A4E3B1E00D9160
:100890001C9104561040A4E3B1E00D931C93A8E210
:1008A000B1E08C918F5F8C93E7CF8091280180938A
:1008B000290180E080932801A4E3B1E00D911C910F
:1008C0000A3050E0150708F410C0A4E3B1E00D9120
:1008D0001C910A501040A4E3B1E00D931C93A8E2D0
:1008E000B1E08C918F5F8C93E7CF8091280180934A
:1008F0002A01A4E3B1E08C91ABE2B1E08C930895BE
:1009000008D0E7D000FC10D0089503D01ED001F825
:10091000F9CF0024E89457FF02C009D0689400F88A
:100920000BD010F80124089502D009D008955095F5
:1009300040954F5F5F4F0895E89417FF0895009525
:1009400010950F5F1F4F68940895352F242FE8945A
:10095000452B11F468940895512F402F002711273B
:1009600080E1440F551F001F111F021B130B416034
:1009700018F4020F131F4E7F8A9599F7089500FC13
:1009800005D0089530D005D001F8F9CF37D03FD049
:100990000895842F952FA62FB72FE894452B462B2B
:1009A000472B11F468940895402F512F622F732F15
:1009B0000027112722273327F0E2440F551F661F17
:1009C000771F001F111F221F331F081B190B2A0B33
:1009D0003B0B416028F4080F191F2A1F3B1F4E7F55
:1009E000FA9559F708950024E89477FF02C006D0DD
:1009F000689400F809D010F80124089512D04F5FD0
:100A00005F4F6F4F7F4F0895E89437FF089500952B
:100A10001095209530950F5F1F4F2F4F3F4F6894D3
:100A20000895409550956095709508953197F1F728
:100A30000895689462F80895E89462F808953C98DF
:100A40003D98449A459A089568944093BC008F93CA
:100A50009F9388279927019629F04091BC0047FF72
:100A6000FACFE8949F918F9162F8089544EAECCF11
:100A700044E94093BC004091BC0044FDFCCF089584
:100A80001093BB0044E8E0DF8F939F93882799275A
:100A9000019671F04091B900487F483FC9F3E8944E
:100AA000483139F0483229F0403419F0403509F026
:100AB00068949F918F9162F8089544E801C044ECD6
:100AC000C3DF1091BB004091B900487F483FD9F384
:100AD00008950F92B801469F8001479F100D569FC1
:100AE000100D0F9008950F921F922F92C801D901F7
:100AF000489F80014A9F90014B9F202C499F100DD9
:100B0000211D321D5A9F202C589F100D211D321D72
:100B1000599F200D311D689F200D311D699F300D9B
:100B2000789F300D2F901F900F900895903029F0EE
:100B30008C9186959A95E9F78C93089591E0882396
:100B400021F08894991F8A95E9F7892F9095089547
:100B5000883018F011968850FBCF0895FF93881BBA
:100B6000F9E0001FFA9511F4FF910895881F841B86
:100B700018F4840F8894F5CF0894F3CF88E005909B
:100B80000D928A95E1F71897089500000000000083
:020B9000000063
:00000001FF
